:020000040800F2
:1000000048080020C52500086103000863030008B4
:10001000670300086B0300086F030008000000007E
:100020000000000000000000000000007303000852
:10003000750300080000000077030008790300083A
:10004000DF250008DF250008DF250008DF25000880
:10005000DF250008DF250008DF250008DF25000870
:10006000DF250008DF250008DF250008DF25000860
:10007000DF250008DF250008DF250008DF25000850
:10008000DF250008DF250008DF250008DF25000840
:10009000DF250008DF250008DF250008DF25000830
:1000A000DF250008DF250008DF250008DF25000820
:1000B000DF2500082B27000865270008DF2500083A
:1000C000DF250008DF250008DF250008DF25000800
:1000D000DF250008633100087B310008B9310008D2
:1000E000DF250008DF250008DF25000800F002F802
:1000F00000F062F80AA090E8000C82448344AAF160
:100100000107DA4501D100F057F8AFF2090EBAE85D
:100110000F0013F0010F18BFFB1A43F0010318473B
:10012000A4520000C4520000103A24BF78C878C11D
:10013000FAD8520724BF30C830C144BF04680C60ED
:10014000704700000023002400250026103A28BF35
:1001500078C1FBD8520728BF30C148BF0B60704739
:10016000692903F0DF80642903F0DC80752903F03E
:10017000D9806F2903F07081782903F09581036895
:10018000DB0928BF41F08001632903F0B4837329A0
:1001900003F0B983E32903F0D783002070471FB52C
:1001A00003F038FC04000020002104F025FA401C74
:1001B00060601FBD10B510BD03F006FC1146FFF7CF
:1001C000EEFF00F067F803F029FC03B4FFF7F2FF3D
:1001D00003BC02F089FE000010B54CA003F020F82B
:1001E0004FF4967002F04DFE4AA14B4803F04CFAD2
:1001F000044646A003F014F84FF4967002F041FE56
:1002000044A1454803F040FA044602F031FAC4B96B
:100210000120424908604FF4967002F032FE4FF41C
:10022000967002F02EFE4FF4967002F02AFE4FF404
:10023000967002F026FE00203949C1F8800102F0D4
:1002400017FA32A002F0ECFF4FF4967002F019FE9C
:1002500002F00EFA2FA1304803F016FA044631A03E
:1002600002F0DEFF4FF4967002F00BFE00203049E2
:10027000086002F0FDF92FA002F0D2FF4FF4967053
:1002800002F0FFFD2FA002F0CBFF4FF4967002F0BA
:10029000F8FD10BD1FB52FA207CA01AB07C302F0BE
:1002A000B3FD02F01BFE02F0ADF94FF4E13002F0B5
:1002B00045FE4FF4E13002F090FE4FF4E13002F0E1
:1002C000DCFE40F27121072002F0C0F9FFF784FF45
:1002D00002F06FFA02F07AFB17E002F037FD0090AF
:1002E00001A802F01CFF9DF8000002F0C9FB4FF4CA
:1002F000FA7002F0C6FD0E48006808B9012000E05F
:1003000000200B49086002F0B3F9E6E741540D0AFA
:10031000000000004F4B0000BB0000208001214284
:10032000000021424154453026570D0A00000000CC
:100330008081214241542B514D54444953433D3017
:100340000D0A000041542B514D54434C4F53453D31
:10035000300D0A0044415441204953204F4B0000C6
:10036000704700BFFEE700BFFEE700BFFEE700BF2B
:10037000FEE77047704770477047000010B500F007
:100380003DFE012000F0BFFE00BF212000F079FEFD
:100390000028FAD0102000F099F9022000F082F92C
:1003A000002000F0D0FE002000F0DFFE4FF480605F
:1003B00000F0D2FE4FF46011002000F0A7FE0120F3
:1003C00000F0B0FE00BF392000F05BFE0028FAD03C
:1003D000022000F0AAFE00BF00F0B0FE0828FBD10A
:1003E00001211D2000F078FF10BD0CB50020019008
:1003F00000906C48006840F480306A49086000BF93
:100400006848006800F4003000900198401C01909A
:10041000009818B90198B0F5A06FF1D16148006853
:1004200000F4003010B10120009001E000200090A5
:100430000098012843D15C48006840F010005A49F8
:1004400008600846006820F003000860084600685D
:1004500040F002000860534840685249486008462E
:10046000406848600846406840F48060486008463C
:10047000406820F47C1048600846406840F4E8106A
:1004800048600846006840F08070086000BF45483A
:10049000006800F000700028F9D04248406820F061
:1004A0000300404948600846406840F00200486048
:1004B00000BF3C48406800F00C000828F9D10CBD92
:1004C00010B5FFF792FF10BD10B53648006840F038
:1004D0000100344908600846406834490840314901
:1004E000486008460068324908402E4908600846BE
:1004F000006820F4802008600846406820F4FE0070
:1005000048604FF41F008860FFF7DAFF4FF000608B
:100510002849086010BD10B5002100200022214BA1
:100520005B6803F00C0121B1042906D0082928D109
:1005300007E0214B214C236027E01F4B1F4C236019
:1005400023E0184B5B6803F47010164B5B6803F4F0
:100550008032022303EB904022B9194B4343174CDE
:1005600023600DE00F4B5B6803F4003323B1144BA1
:100570004343124C236003E00F4B43430F4C236073
:1005800003E00D4B0D4C236000BF00BF054B5B68C3
:10059000C3F303130B4CE15C084B1B68CB40074CC7
:1005A000236010BD00100240002002400000FFF850
:1005B000FFFFF6FE08ED00E000127A0000000020C8
:1005C00000093D000400002031490143314A116017
:1005D000704770B5002100230F22C47804B32D4C5E
:1005E000246804F4E064C4F5E064210AC1F1040362
:1005F000CA40447804FA03F1847814402143090185
:10060000254C0678A155047804F01F050124AC4060
:1006100005786D11AD0005F1E025C5F8004109E050
:10062000047804F01F050124AC401C4D06787611B7
:1006300045F8264070BD1A4A0A400243154B1B1F5D
:100640001A60704739B1134A121D12680243114BE8
:100650001B1D1A6006E00F4A121D126882430D4BE3
:100660001B1D1A607047042808D14FF0E02109696A
:1006700041F004014FF0E022116107E04FF0E0216A
:10068000096921F004014FF0E02211617047000078
:100690000000FA050CED00E000E400E080E100E07D
:1006A00080FFFF1F01460020FE4A106800F038005E
:1006B000084310607047FB49096821F00801F94AB6
:1006C000116011460968014311607047F5490968D6
:1006D00021F01001F34A11601146096801431160CD
:1006E0007047F148EF494860F04848607047EE486D
:1006F000EC494860ED4848607047EA48006940F0BE
:100700008000E84908617047E648006940F08000D1
:10071000E449086170470420E249C96801F0010119
:1007200009B101200EE0DF49C96801F0040109B1F7
:10073000022007E0DB49C96801F0100109B103207C
:1007400000E00420704700B502460423FFF7E3FFF2
:10075000034603E0FFF7DFFF0346521E012B01D1E2
:10076000002AF7D102B90523184600BD30B504466A
:1007700004254FF43020FFF7E6FF0546042D17D17E
:10078000C848006940F00200C64908610846446153
:10079000006940F0400008614FF43020FFF7D3FFBC
:1007A0000546C048006941F6FD710840BD49086131
:1007B000284630BD10B504244FF43020FFF7C3FFA6
:1007C0000446042C16D1B748006940F00400B5492E
:1007D00008610846006940F0400008614FF430208D
:1007E000FFF7B1FF0446AF48006941F6FB710840CE
:1007F000AC490861204610BD00B502460423FFF74E
:100800008AFF034603E0FFF786FF0346521E012BD3
:1008100001D1002AF7D102B90523184600BD10B551
:1008200004244FF43020FFF7E7FF0446042C16D1D0
:100830009C48006940F004009A4908610846006934
:1008400040F0400008614FF43020FFF7D5FF044628
:100850009448006941F6FB710840924908612046BE
:1008600010BD00208F49C96901F0020109B10120C2
:1008700000E00020704730B5A5250424FFF7F1FF04
:1008800000B100254FF43020FFF75DFF0446042C33
:100890003AD1854883498860844888600846006961
:1008A00040F0200008610846006940F040000861FF
:1008B0004FF43020FFF747FF0446042C1BD1794842
:1008C000006941F6DF710840764908610846006911
:1008D00040F01000086176480580E002FFF733FF22
:1008E0000446052C10D06F48006941F6EF710840AE
:1008F0006C49086108E0052C06D06A48006941F699
:10090000EF71084067490861204630BD78B506465A
:100910000C46042500200090E802FFF714FF05466E
:10092000042D24D15F48006940F001005D49086151
:100930003480E802FFF707FF0546042D10D1B01CF4
:100940000090200C00990880E802FFF7FCFE0546A5
:100950005448006941F6FE7108405249086106E0BA
:100960005048006941F6FE7108404E49086128462A
:1009700078BD70B504460D460426F002FFF7E3FE8D
:100980000646042E11D14748006940F00100454950
:1009900008612580F002FFF7D6FE0646414800694F
:1009A00041F6FE7108403F490861304670BD70B5A0
:1009B00005460E460424E002FFF7C5FE0446042C5B
:1009C00017D1394837498860384888600846006937
:1009D00040F0100008612E80E002FFF7B4FE0446EC
:1009E000052C06D02F48006941F6EF7108402D49CB
:1009F0000861204670BD2DE9F04304464FF6FF76AE
:100A00003746B046B1460425E443E6B2C4F30727AF
:100A1000C4F307484FEA1469E802FFF794FE05465D
:100A2000042D49D120481F49886020488860084625
:100A3000006940F010000861FF2E06D01C48083005
:100A40000680E802FFF77FFE0546042D08D1FF2F40
:100A500006D017480A300780E802FFF774FE054603
:100A6000042D0AD1B8F1FF0F07D011480C30A0F8BF
:100A70000080E802FFF767FE0546042D0AD1B9F1B0
:100A8000FF0F07D00A480E30A0F80090E802FFF7E9
:100A90005AFE0546052D0FD00248006941F6EF7158
:100AA000084007E00020024023016745AB89EFCDF5
:100AB00000F8FF1F664908612846BDE8F08330B59D
:100AC000054604244FF43020FFF73DFE0446042C75
:100AD00041D160485E4988605F4888600846006987
:100AE00040F0200008610846006940F040000861BD
:100AF0004FF43020FFF727FE0446042C22D154483F
:100B0000006941F6DF7108405149086108460069F3
:100B100040F0100008611DB100205049088002E03B
:100B2000A5204E4908804FF43020FFF70CFE044604
:100B3000052C10D04648006941F6EF710840444941
:100B4000086108E0052C06D04148006941F6DF71D4
:100B500008403F490861204630BDF0B505460E46C5
:100B6000174604243B483A4988603B488860E002C5
:100B7000FFF7E9FD0446042C19D13548006940F01F
:100B800010003349086147F0F800304328433349E7
:100B9000891C0880E002FFF7D6FD0446052C06D02C
:100BA0002B48006941F6EF71084029490861204649
:100BB000F0BD2748C069800870472548006A704723
:100BC00000202349096801F0200109B1012000E05B
:100BD0000020704729B11E4A126902431C4B1A615A
:100BE00004E01B4A12698243194B1A61704701469F
:100BF0000020012908D1164AD26902F001020AB187
:100C0000012008E0002006E0114AD2680A400AB13B
:100C1000012000E0002070470D49C86070470420A3
:100C20000B49C96801F0010109B101200EE0084932
:100C3000C96801F0040109B1022007E00449C9684C
:100C400001F0100109B1032000E00420704700000A
:100C50000020024023016745AB89EFCD00F8FF1F5C
:100C600010B50446CC48844208D10121042000F08C
:100C70004DFB0021042000F049FB46E0C7488442B8
:100C800008D10121082000F041FB0021082000F0DC
:100C90003DFB3AE0C248844208D10121102000F017
:100CA00035FB0021102000F031FB2EE0BD488442CE
:100CB00008D10121202000F029FB0021202000F094
:100CC00025FB22E0B848844208D10121402000F0F1
:100CD0001DFB0021402000F019FB16E0B3488442C0
:100CE00008D10121802000F011FB0021802000F0BC
:100CF0000DFB0AE0AE48844207D10121801500F0C7
:100D000005FB0021A01500F001FB10BD10B501216D
:100D1000084600F0FBFA0021012000F0F7FA10BDB0
:100D20002DE9F04102460025002600200023002482
:100D3000002791F803C00CF00F0591F803C00CF0E8
:100D4000100CBCF1000F03D091F802C04CEA05056D
:100D500091F800C0BCF1000F31D0146800202BE0E6
:100D60004FF0010C0CFA00F3B1F800C00CEA0306D6
:100D70009E4220D183004FF00F0C0CFA03F7BC43C6
:100D800005FA03FC4CEA040491F803C0BCF1280FF7
:100D900006D14FF0010C0CFA00FCC2F814C00AE0B6
:100DA00091F803C0BCF1480F05D14FF0010C0CFACB
:100DB00000FCC2F810C0401C0828D1D31460B1F860
:100DC00000C0BCF1FF0F34DD546800202EE000F1BC
:100DD000080C4FF0010808FA0CF3B1F800C00CEA57
:100DE00003069E4221D183004FF00F0C0CFA03F74B
:100DF000BC4305FA03FC4CEA040491F803C0BCF1BF
:100E0000280F05D100F1080C08FA0CF8C2F814807C
:100E100091F803C0BCF1480F07D100F1080C4FF066
:100E2000010808FA0CF8C2F81080401C0828CED33C
:100E30005460BDE8F0814FF6FF710180022181709E
:100E40000421C17070470246002093680B400BB12B
:100E5000012000E0002070470146886880B270479A
:100E600002460020D3680B400BB1012000E00020B7
:100E700070470146C86880B27047016170474161A0
:100E800070470AB1016100E041617047C16070477D
:100E90004FF480320A438261816182618269826992
:100EA000704702460020434B18684FF68073184085
:100EB00040EA021008433F4B186070473E49C86142
:100EC0007047F0B50A46002300240021002500F0F9
:100ED0000046B6F1004F02D1364EF16901E0354EC1
:100EE0007168C0F3034583B200F44016B6F5401FA5
:100EF00008D121F070612F4E766826F070662D4F74
:100F00007E6012E000F48016B6F5801F06D103263D
:100F100006FA05F4A14341F0706106E0460D360182
:100F200003FA06F6B14341F0706122B1460D360175
:100F300003FA06F6314300F00046B6F1004F02D145
:100F40001C4EF16101E01B4E7160F0BD30B5002216
:100F50008B071C0F0F2303FA04F2164B08338C1077
:100F600053F824309343134C08348D1044F8253043
:100F700023468C1053F824308C07240F00FA04F415
:100F800023430C4C08348D1044F8253030BD0A49F9
:100F9000DC3108607047000000080140000C01408F
:100FA000001001400014014000180140001C0140E5
:100FB0000020014000000140000020420E4908606E
:100FC00070470D49486070470B49886070474AF682
:100FD000AA200949086070474CF6CC4006490860D1
:100FE000704701460020044AD2680A400AB1012035
:100FF00000E000207047000000300040DF4800683B
:1010000040F00100DD49086008464068DC490840BE
:10101000DA49486008460068DA490840D74908605C
:101020000846006820F4802008600846406820F4E4
:10103000FE0048604FF41F0088607047CF49096880
:1010400021F48031CD4A11601146096821F48021D4
:101050001160B0F5803F03D0B0F5802F0ED106E0CF
:10106000C649096841F48031C44A116007E0C349A8
:10107000096841F4A021C14A116000E000BF00BF2F
:10108000704710B501460022002300204A11012AB2
:1010900002D1BA4C236806E0022A02D1B74C236A77
:1010A00001E0B64C636A01F01F02012494401C4029
:1010B0000CB1012000E0002010BD38B500200090E8
:1010C0000024002500BF3120FFF7DBFF0546009814
:1010D000401C00900098B0F5A06F01D0002DF2D018
:1010E0003120FFF7CEFF08B1012400E000242046A4
:1010F00038BD01460020A14A106820F0F80040EAFF
:10110000C10010607047A049086070470246002087
:101110009A4B586820F47C1042EA01031843974B1D
:101120005860704798490866704701460020934A06
:10113000506820F003000843506070478F484068B3
:1011400000F00C007047014600208C4A506820F0E7
:10115000F00008435060704701460020874A5068FD
:1011600020F4E06008435060704701460020834A45
:10117000506820F4605040EAC1005060704729B1C7
:101180007E4A527A02437D4B5A7204E07B4A527A7D
:1011900082437A4B5A7270477B49D8310860704756
:1011A00001460020754A506820F4404008435060D2
:1011B00070470021714A20321170704A82F8201065
:1011C000012802D004280AD104E001216B4A203210
:1011D000117005E00521694A2032117000E000BF5E
:1011E00000BF70476949086070476449096A014354
:1011F000624A11627047654944390860704730B5EA
:1012000000210022002400235C4D6D6805F00C01D4
:1012100021B1042905D0082923D105E05C4D0560E2
:1012200022E05B4D05601FE0544D6D6805F47012BF
:10123000524D6D6805F48034022505EB92421CB9CD
:10124000544D554305600BE04C4D6D6805F4003579
:101250001DB1504D5543056002E04D4D55430560AD
:1012600002E04B4D056000BF00BF444D6D6805F0C6
:10127000F0010909484D6B5C0568DD4045603F4D54
:101280006D6805F4E061090A434D6B5C4568DD401B
:1012900085603A4D6D6805F46051C90A3E4D6B5C3E
:1012A0004568DD40C560354D6D6805F44041890BEA
:1012B0003A4D6B5CC568B5FBF3F5056130BD29B1EE
:1012C0002E4A526902432D4B5A6104E02B4A52695F
:1012D00082432A4B5A61704729B1284A92690243D6
:1012E000264B9A6104E0254A92698243234B9A6116
:1012F000704729B1214AD2690243204BDA6104E0E8
:101300001E4AD26982431D4BDA61704729B11B4ADC
:10131000D2680243194BDA6004E0184AD26882436B
:10132000164BDA60704729B1144A12690243134B15
:101330001A6104E0114A12698243104B1A61704726
:1013400012494039086070470F49C86470470B491B
:10135000C87170470948406A40F080700749486288
:10136000704701460020054A92680A400AB10120F0
:1013700000E0002070470149887270470010024069
:101380000000FFF8FFFFF6FE0000424280044242E8
:1013900000127A0000093D00140000202400002003
:1013A00010B50446FE48844208D10121C014FFF75D
:1013B000ADFF0021E014FFF7A9FFC4E0B4F1804FB6
:1013C00008D101210846FFF7AEFF00210120FFF7F9
:1013D000AAFFB8E0F348844208D101210220FFF7B8
:1013E000A2FF00210220FFF79EFFACE0EE488442FE
:1013F00008D101210420FFF796FF00210420FFF708
:1014000092FFA0E0E948844208D101210820FFF7BB
:101410008AFF00210820FFF786FF94E0E448844219
:1014200008D101211020FFF77EFF00211020FFF7D7
:101430007AFF88E0DF48844208D101212020FFF7AD
:1014400072FF00212020FFF76EFF7CE0DA48844223
:1014500008D101214014FFF759FF00216014FFF764
:1014600055FF70E0D548844209D10121C804FFF737
:101470004DFF00214FF40020FFF748FF63E0D04804
:10148000844209D101210805FFF740FF00214FF4F4
:101490008010FFF73BFF56E0CA48844209D1012182
:1014A0004805FFF733FF00214FF40010FFF72EFF30
:1014B00049E0C548844208D101214020FFF733FFAD
:1014C00000214020FFF72FFF3DE0C048844208D1B3
:1014D00001218020FFF727FF00218020FFF723FF55
:1014E00031E0BB48844208D101218015FFF71BFF82
:1014F0000021A015FFF717FF25E0B648844209D167
:1015000001210804FFF702FF00214FF48030FFF7AC
:10151000FDFE18E0B048844209D101214804FFF7DC
:10152000F5FE00214FF40030FFF7F0FE0BE0AB4872
:10153000844208D101218804FFF7E8FE00214FF41E
:101540008020FFF7E3FE10BD00220288944B9842F2
:101550000ED0994B98420BD0B0F1804F08D0914BF0
:10156000984205D0904B984202D0904B984204D1BB
:101570004FF68F731A404B881A438D4B984207D011
:101580008C4B984204D04FF6FF431A40CB881A4345
:1015900002808B8883850B880385814B98420BD012
:1015A000854B984208D08B4B984205D08A4B984285
:1015B00002D08A4B984201D10B7A038601238382A1
:1015C000704770B5002400220023058C4FF6FE768C
:1015D00035400584028C8388048B4FF68F752C4030
:1015E000B51E2C400D882C43751E2A400D892A43B8
:1015F0004D882A436A4DA8420BD06F4DA84208D0AF
:10160000744DA84205D0744DA84202D0734DA84233
:1016100013D14FF6F7752A404D892A434FF6FB75D3
:101620002A408D882A434FF6FF652B404FF6FF5521
:101630002B408D892B43CD892B4383800483CD8818
:101640008586028470BD70B5002400220023058CBD
:101650004FF6EF7635400584028C8388048B48F67C
:10166000FF752C404FF6FF452C400D884FF6FF7656
:1016700006EA05252C434FF6DF752A400D8906EA58
:1016800005152A434D8806EA05152A43444DA8420C
:1016900002D0494DA8421DD14FF67F752A404D8991
:1016A0004FF6FF7606EA05152A434FF6BF752A4026
:1016B0008D8806EA05152A434FF6FF352B404FF279
:1016C000FF752B408D8906EA85052B43CD8906EAF7
:1016D00085052B4383800483CD880587028470BDF4
:1016E00070B5002400220023058C4FF6FF663540BC
:1016F0000584028C8388848B4FF68F752C404FF6BF
:10170000FC752C400D882C434FF6FF552A400D895F
:101710004FF6FF7606EA05252A434D8806EA052599
:101720002A431F4DA84202D0234DA8421DD14FF29B
:10173000FF752A404D894FF6FF7606EA05252A43B4
:101740004FF6FF352A408D8806EA05252A434EF6D6
:10175000FF752B404DF6FF752B408D8906EA051568
:101760002B43CD8906EA05152B4383808483CD88DE
:101770008587028470BD70B5002200230024058C8B
:101780004EF6FF7635400584038C8488828B48F6BC
:10179000FF752A404FF6FF452A400D8820E00000E3
:1017A000002C01400004004000080040000C0040F4
:1017B000001000400014004000340140004C014083
:1017C000005001400054014000180040001C00403F
:1017D000002000400040014000440140004801401A
:1017E0004FF6FF7606EA05252A434DF6FF752B4096
:1017F0000D8906EA05352B434D8806EA05352B434E
:10180000FA4DA84202D0FA4DA84208D14BF6FF7516
:101810002C408D894FF6FF7606EA85152C4384808F
:101820008283CD88A0F84050038470BD828B4FF234
:10183000FF331A408283828B4FF6FF7303EA012342
:101840001A4382837047F0B50C46154600220021EA
:101850000026078C4EF6FF7C07EA0C070784828B74
:10186000018C4FF6FF7707EA043640F6FF473A400F
:101870004FF6FF7707EA05273A434FF6FF7707EA67
:1018800003373A43D94FB8420ED0D94FB8420BD0A4
:10189000B0F1804F08D0D74FB84205D0D64FB842EC
:1018A00002D0D64FB84206D14DF6FF77394046F404
:1018B0008057394305E047F6FF57394044F48057D5
:1018C000394382830184F0BD828B4FF6F3731A4053
:1018D0008283828B0A4382837047F0B50C4615469B
:1018E000002200210026078C4FF6FF6C07EA0C0748
:1018F0000784828B018C4FF6FF7707EA04264FF6A8
:101900000C773A404FF6FF7707EA03172F433A4325
:10191000B64FB8420ED0B64FB8420BD0B0F1804FA0
:1019200008D0B44FB84205D0B34FB84202D0B34F3D
:10193000B84206D14FF6FF57394046F48077394315
:1019400005E04FF2FF57394044F4807739438283F2
:101950000184F0BD028B4FF2FF331A400283028BE9
:101960004FF6FF7303EA01231A4302837047F0B571
:101970000C461546002200210026078C4FF6EF7C0E
:1019800007EA0C070784028B018C4FF6FF7707EA02
:10199000041640F6FF473A404FF6FF7707EA033751
:1019A0003A434FF6FF7707EA05273A438F4FB8428D
:1019B0000ED08F4FB8420BD0B0F1804F08D08D4F72
:1019C000B84205D08C4FB84202D08C4FB84206D1F5
:1019D0004FF6DF77394046F01007394305E04FF600
:1019E0005F77394044F01007394302830184F0BD2A
:1019F000028B4FF6F3731A400283028B0A43028371
:101A00007047F0B50C46154600220021068C4FF6B3
:101A1000FE773E400684028B018C4FF60C763240F6
:101A20007E1C06EA03162E433243704EB0420ED09F
:101A30006F4EB0420BD0B0F1804F08D06D4EB04227
:101A400005D06D4EB04202D06C4EB04206D14FF67A
:101A5000FD76314044F00106314305E04FF6F5765E
:101A6000314044F00106314302830184F0BD70B57A
:101A700005460C465D4885420ED05D4885420BD038
:101A8000B5F1804F08D05B48854205D05A48854261
:101A900002D05A48854200D100E000BF208850B9EA
:101AA0002389A28861882846FFF7ABFFE188284692
:101AB000FFF79EFF25E0208804280AD12389A28809
:101AC00061882846FFF753FFE1882846FFF742FF69
:101AD00017E0208808280AD12389A288618828462F
:101AE000FFF7FBFEE1882846FFF7EEFE09E02389B9
:101AF000A28861882846FFF7A6FEE1882846FFF7FE
:101B000095FE70BD2DE9F04105460C4600260127E3
:101B1000608808B9022600E00026A088012801D1CB
:101B2000022700E001272088A0B92389A2886188C4
:101B30002846FFF766FFE1882846FFF759FF23890B
:101B40003A4631462846FFF712FFE1882846FFF75C
:101B500001FF13E02389A28861882846FFF707FF69
:101B6000E1882846FFF7F6FE23893A4631462846A3
:101B7000FFF747FFE1882846FFF73AFFBDE8F0810D
:101B80000A884B881A438B881A43CB881A430B89DF
:101B90001A434B891A438B891A43A0F84420704793
:101BA0004FF6FF71818000210180C1804180017268
:101BB00070470021018041808180C1800181418185
:101BC0008181C18170470021018041800121818094
:101BD0000021C18001817047002101804180818006
:101BE000C18001814181818170470000002C01404A
:101BF000003401400004004000080040000C004098
:101C000021B1028842F00102028004E002884FF60E
:101C1000FE731A400280704731B1B0F8442042F49C
:101C20000042A0F8442005E0B0F84420C2F30E02C0
:101C3000A0F8442070471AB183890B43838102E0E6
:101C400083898B43838170478182704741EA020315
:101C5000A0F8483070471AB183890B43838102E0B2
:101C600083898B438381704701894FF6F872114055
:101C7000018170470A46002101894FF68F73194090
:101C800011430181704730B504460D462946204670
:101C9000FFF7F0FF208940F00700208130BD2DE9DB
:101CA000F04104460D4616461F46602D06D13B46C0
:101CB000012231462046FFF75AFE05E03B4601224D
:101CC00031462046FFF79DFE29462046FFF7D2FF0A
:101CD000208940F007002081BDE8F08130B50C4636
:101CE00000210189C9B24FF6FF7505EA03251543A6
:101CF00025432943018130BD2DE9F04105460E46BB
:101D000017469846002443463A4631462846FFF790
:101D1000E5FF2C894FF6F870044044F007044FF6B5
:101D20008F70044044F070042C81BDE8F081F0B560
:101D300004460D4616461F463B4632462946204677
:101D4000FFF7CCFF208940F480402081F0BD018561
:101D5000828270470A46002101884FF68F7319402E
:101D6000114301807047F0B50C4615461E46002110
:101D7000002200230189028B038C4FF6F87739404B
:101D800021434FF6FC473A4040F201173A434FF6E1
:101D9000DD773B404FF6FF7707EA06172F433B43BB
:101DA000018102830384F0BD0A460021018B4FF6B6
:101DB0008F7319401143018370470A460021018B3C
:101DC00048F6FF7319404FF6FF7303EA02231943E5
:101DD000018370470A460021818B4FF68F731940AB
:101DE0001143818370470A460021818B48F6FF73B7
:101DF00019404FF6FF7303EA0223194381837047AA
:101E000021B1028842F08002028004E002884FF68D
:101E10007F731A400280704721B1828842F0040229
:101E2000828004E082884FF6FB731A4082807047FC
:101E300021B1828842F00802828004E082884FF655
:101E4000F7731A408280704721B1828842F0010204
:101E5000828004E082884FF6FE731A4082807047C9
:101E60000A460021018B4FF6F77319401143018395
:101E700070470A460021018B4FF2FF7319404FF65D
:101E8000FF7303EA02231943018370470A460021C6
:101E9000818B4FF6F77319401143818370470A46CF
:101EA0000021818B4FF2FF7319404FF6FF7303EA55
:101EB00002231943818370470A460021018B4FF6A4
:101EC000FB7319401143018370470A460021018BBF
:101ED0004FF6FF3319404FF6FF7303EA022319430D
:101EE000018370470A460021818B4FF6FB7319402E
:101EF0001143818370470A460021818B4FF6FF33DF
:101F000019404FF6FF7303EA022319438183704798
:101F10000A460021018B4FF67F731940114301835C
:101F200070470A460021018BC1F30E014FF6FF7383
:101F300003EA02231943018370470A460021818B7B
:101F40004FF67F7319401143818370470A46002181
:101F5000818BC1F30E014FF6FF7303EA022319438D
:101F6000818370470A460021018C4FF6FD731940AA
:101F70001143018470470A460021018C4FF6F77324
:101F800019401143018470470A460021018C4FF625
:101F9000DF7319404FF6FF7303EA021319430184FC
:101FA00070470A460021018C4FF67F7319404FF6A7
:101FB000FF7303EA02131943018470470A460021A4
:101FC000018C4FF6FF5319404FF6FF7303EA0223CB
:101FD0001943018470470A460021018C4FF2FF73B8
:101FE00019404FF6FF7303EA022319430184704737
:101FF0000A460021018C4DF6FF7319404FF6FF731E
:1020000003EA023319430184704730B500230124E9
:102010008C40A3B2048C9C430484048C02FA01F526
:10202000ADB22C43048430BD30B5002304248C4071
:10203000A3B2048C9C430484048C02FA01F5ADB273
:102040002C43048430BD70B503460020002418469C
:10205000183001258D40ACB21D8CA5431D8409B1FB
:10206000082909D100EB6100056825F070050560BD
:102070000568154305600EE00D1FC5F34E052844A5
:10208000056825F4E045056005684FF6FF7606EA29
:1020900002263543056070BD21B1028842F002027C
:1020A000028004E002884FF6FD731A4002807047F8
:1020B00021B1028842F00402028004E002884FF657
:1020C000FB731A400280704721B1828842F080027F
:1020D000828004E082884FF67F731A4082807047C6
:1020E00002884FF6F7731A40028002880A43028082
:1020F000704782884FF68F731A40828082880A4325
:102100008280704702894FF6F8731A400281028973
:102110000A430281704702894FF67F731A40028199
:1021200002890A4302817047818470478185704724
:10213000818670470187704781877047A0F84010FB
:10214000704702884FF6FF431A40028002880A4314
:10215000028070470146888E70470146088F70479D
:102160000146888F70470146B1F84000704701462C
:10217000888C70470146088D704702460020138AFC
:102180000B400BB1012000E000207047CA430282DF
:10219000704730B50246002000230024158A05EA66
:1021A0000103958905EA010413B10CB1012000E097
:1021B000002030BDCA4302827047000010B50446BB
:1021C000FB48844209D101218803FFF79FF80021D1
:1021D0004FF48040FFF79AF832E0F648844209D184
:1021E00001214804FFF79FF800214FF40030FFF76A
:1021F0009AF825E0F048844209D101218804FFF7CC
:1022000092F800214FF48020FFF78DF818E0EB489A
:10221000844209D10121C804FFF785F800214FF459
:102220000020FFF780F80BE0E548844208D1012147
:102230000805FFF778F800214FF48010FFF773F8D6
:1022400010BD2DE9F04786B005460E460024A24693
:1022500000BFA1460027B08900B100BF2F462C8ADD
:102260004CF6FF700440F08804432C82AC894EF693
:10227000F3100440B088318908437189084304434E
:10228000AC81AC8A4FF6FF400440B0890443AC8275
:1022900001A8FEF7B4FFC648874202D1DDF810A0BE
:1022A00001E0DDF80CA0A88900F4004040B10AEB81
:1022B000CA0000EB0A1031684900B0FBF1F807E0F2
:1022C0000AEBCA0000EB0A1031688900B0FBF1F894
:1022D0006420B8FBF0F004012009642101FB10899F
:1022E000A88900F4004040B1322000EBC900B0FBE7
:1022F000F1F000F00700044308E0322000EB091081
:102300006421B0FBF1F000F00F0004432C8106B013
:10231000BDE8F0874FF41651016000218180C18033
:1023200001810C21418100218181704710B5024655
:102330000020108A4FF2FF0318400B884C8823437B
:102340008C882343CC8823431843108210BD00217E
:10235000018041808180C180704721B1828942F42F
:102360000052828104E082894DF6FF731A40828117
:102370007047F0B50346002400260025002040F6F3
:102380006A17B94200D100BF1846C1F3421401F0E8
:102390001F06012707FA06F5012C01D10C3004E0D5
:1023A000022C01D1103000E014301AB107682F431D
:1023B000076002E00768AF430760F0BD1AB1838A87
:1023C0000B43838202E0838A8B4383827047028AB5
:1023D0004FF6F0731A400282028A0A430282704763
:1023E00082894FF2FF731A40828182890A43828177
:1023F000704721B1828942F00202828104E0828921
:102400004FF6FD731A4082817047028A4FF6DF73E0
:102410001A400282028A0A430282704721B1028A6C
:1024200042F48042028204E0028A4BF6FF731A40B3
:1024300002827047C1F30802828070470146888893
:10244000C0F308007047818941F001018181704724
:10245000028BD2B20283028B42EA012202837047CE
:10246000028B02F47F420283028B0A43028370478D
:1024700021B1828A42F02002828204E0828A4FF6F1
:10248000DF731A408282704721B1828A42F01002C3
:10249000828204E0828A4FF6EF731A40828270478C
:1024A00021B1828A42F00802828204E0828A4FF6D9
:1024B000F7731A408282704721B1828942F4004248
:1024C000828103E08289C2F30E028281704721B1CA
:1024D000828A42F40062828204E0828A4FF2FF73B1
:1024E0001A4082827047828A4FF6FB731A408282BA
:1024F000828A0A438282704721B1828A42F00202B4
:10250000828204E0828A4FF6FD731A40828270470D
:1025100002460020B1F5007F00D100BF13880B40B8
:102520000BB1012000E00020704701F40072B2F509
:10253000007F00D100BFCA430280704770B50246D9
:10254000002400230025002040F66A16B14200D185
:1025500000BFC1F3421501F01F03012606FA03F381
:10256000012D02D19689334006E0022D02D1168A50
:10257000334001E0968A33400C12012606FA04F437
:102580001688344013B10CB1012000E0002070BD6A
:1025900010B50022002340F66A14A14200D100BF0A
:1025A0000A1201249440A3B2DC43048010BD000051
:1025B000003801400044004000480040004C00400A
:1025C000005000400948804709480047FEE7FEE701
:1025D000FEE7FEE7FEE7FEE7FEE7FEE7FEE7FEE7D3
:1025E00004480549054A064B70470000C904000825
:1025F000ED000008480200204808002048040020A0
:102600004804002008B501210C20FEF765FE0120DA
:10261000ADF8000010208DF8030003208DF80200B3
:1026200069460848FEF77CFB0120ADF80000102049
:102630008DF8030003208DF8020069460248FEF77A
:102640006FFB08BD000C01400008014070B5054655
:102650000C4645F25550FEF7B1FC2846FEF7B1FC9A
:102660002046FEF7B1FCFEF7B2FCFEF7B5FC70BDEC
:1026700010B5FEF7ACFC10BD7FB505460C46012138
:102680000220FEF736FEADF80850ADF804400020F9
:10269000ADF80A00ADF8060001A93848FEF754FF6E
:1026A000012211463548FFF7C6FA1D208DF80000BB
:1026B00000208DF8010003208DF8020001208DF824
:1026C00003006846FDF785FF00212C48FFF798FAC4
:1026D0007FBD7FB505460C4601210420FEF709FEAB
:1026E000ADF80850ADF804400020ADF80A00ADF890
:1026F000060001A92248FEF727FF012211462048C3
:10270000FFF799FA1E208DF8000003208DF80100D4
:102710008DF8020001208DF803006846FDF759FF8F
:1027200001211748FFF76CFA7FBD10B5012113484E
:10273000FFF72FFDA8B101211048FFF73BFD11481D
:102740000078401C0F490870084600781E2808DBF6
:102750000020087001200C49087000210748FFF78D
:102760004FFA10BD10B501210548FFF712FD18B151
:1027700001210348FFF71EFD10BD000000040040CA
:1027800000080040280000202900002010B5D9488A
:1027900000F0C5FC002404E00020D6490855601C68
:1027A000C4B2642CF8DB0020D3490870FFF760FF47
:1027B00010BD10B5D1A000F033FD4FF4967000F0BD
:1027C00060FBD0A1CB4800F05FFFCF490860FFF766
:1027D000DDFF0EE0FFF7DAFFC8A000F021FD4FF4A7
:1027E000967000F04EFBC7A1C24800F04DFFC649ED
:1027F0000860C54800680028ECD0C4A000F010FDB7
:102800004FF4967000F03DFBC3A000F009FD4FF4BB
:10281000967000F036FBC3A1B64800F035FFBA4908
:102820000860FFF7B3FF0EE0FFF7B0FFBAA000F0BB
:10283000F7FC4FF4967000F024FBBAA1AD4800F00D
:1028400023FFB1490860B04800680028ECD0B6A06A
:1028500000F0E6FC4FF4967000F013FBA9A1A54828
:1028600000F012FFA8490860FFF790FFB2A000F047
:10287000D7FC4FF4967000F004FBB2A19D4800F025
:1028800003FFA1490860FFF781FF0EE0FFF77EFF1D
:10289000A9A000F0C5FC4FF4967000F0F2FAA9A1CF
:1028A000944800F0F1FE98490860974800680028B5
:1028B000ECD0A7A000F0B4FC4FF4967000F0E1FA61
:1028C000A6A18C4800F0E0FE8F4908600846006829
:1028D00030B308460068007A30380968C979303961
:1028E00001EB810100EB41009E4908700846007829
:1028F000632804D084480068C079303860B90AE0A1
:102900000020984981F8720097A000F008FC4FF46D
:10291000967000F0B6FAF3E70120924981F8720050
:10292000FFF734FF10BD10B596A000F079FC4FF40E
:10293000967000F0A6FAFFF729FFFFF799FE10BD89
:1029400010B594A000F06CFC4FF4967000F099FA6A
:102950009DA1684800F098FE6B49086008E09AA1C4
:10296000644800F091FE68490860642000F089FA2C
:10297000654800680028F2D0FFF708FF10BD70B569
:1029800004460D462A46214693A000F049FC70BD3E
:1029900070B504460D462A46214695A000F040FC3D
:1029A0004FF4967000F06DFA08E097A1514800F0DE
:1029B0006BFE55490860642000F063FA52480068D5
:1029C0000028F2D0FFF7E2FE70BD704710B590A36B
:1029D00098A29BA19DA000F023FC4FF4967000F0FC
:1029E00050FAA4A000F01CFC4FF4967000F049FAD5
:1029F000AAA1404800F048FE4349086005E0A7A1AD
:102A00003C4800F041FE404908603F48006800280B
:102A1000F5D0FFF7BBFEA5A000F002FC4FF49670C6
:102A200000F02FFAAAA1334800F02EFE36490860C4
:102A300005E0A7A12F4800F027FE3349086032487F
:102A400000680028F5D0FFF7A1FE10BD70B5CEB02C
:102A500006460C466C22A24933A800F08BFE2246A3
:102A600033A901A800F0E8FB01A800F01FFE85B221
:102A70002A4601A9304600F038FEE8B24EB070BDDB
:102A800030B5B3B0044697A1A4A000F0C9FB4FF441
:102A9000967000F0F6F9214601A8FFF7D7FF05462A
:102AA000002001A94855A3A000F0BAFB00BFA2482E
:102AB000008800F040000028F9D01A209E49091D26
:102AC0000880642000F0DDF99CA10A4800F0DCFDDC
:102AD0000D49086005E099A1064800F0D5FD0A49B6
:102AE0000860094800680028F5D0FFF74FFE33B0B2
:102AF00030BD0000BB0000204000002041540D0A02
:102B0000000000004F4B00002C00002041542B43DC
:102B100046554E3D310D0A0041542B43494D490D58
:102B20000A0000003436300041542B4347415454CE
:102B30003D310D0A0000000041542B4347415454DD
:102B40003F0D0A002B43474154543A203100000006
:102B500041542B434553510D0A0000002B4345536C
:102B60005100000048000020D0C5BAC5CBD1CBF73A
:102B7000CAA7B0DCA3ACC7EBB2E9BFB4D4ADD2F204
:102B8000210D0A0041542B5149434C4F53453D30D0
:102B90000D0A000041542B51494F50454E3D312CF8
:102BA000302C22544350222C2234372E39392E38DF
:102BB000302E3839222C31343236392C31323334FC
:102BC0002C310D0A000000002B51494F50454E3A60
:102BD00020302C300000000041542B51534F5345FE
:102BE0004E443D302C25732C25730D0A0000000047
:102BF00041542B514953454E4445583D302C257383
:102C00002C25730D0A00000053454E44204F4B0005
:102C10006236626539313661373739326537356545
:102C200039333731633630343130316462303334E4
:102C3000000000006D7A68746573743030310000F4
:102C4000613153535554697039344E0041542B51FE
:102C50004D544346473D22616C6961757468222C6E
:102C6000302C222573222C222573222C222573221C
:102C70000D0A000041542B514D544F50454E3D30EC
:102C80002C223133392E3139362E3133352E313332
:102C900035222C313838330D0A0000002B514D54A9
:102CA0004F50454E3A20302C3000000041542B51FB
:102CB0004D54434F4E4E3D302C22636C69656E740B
:102CC0004578616D706C655F31393837220D0A00C7
:102CD0002B514D54434F4E4E3A20302C302C300067
:102CE000585300082F7379732F613153535554692A
:102CF0007039344E2F6D7A68746573743030312FAB
:102D00007468696E672F6576656E742F70726F7068
:102D1000657274792F706F737400000041542B51E9
:102D20004D545055423D302C302C302C302C2573D6
:102D30000D0A000025730000004400402B514D5443
:102D40005055423A20302C302C3000002DE9F0470D
:102D50008EB00024A146002600200A900B900C9013
:102D6000824601E0601CC4B22548005D2C28F9D1E0
:102D7000601CC4B20CE02248005D0AA901F80900F9
:102D8000701CC6B2601CC4B209F1010000F0FF095A
:102D90001B48005D2C28EED100252AE0711B481E3F
:102DA00001F081FE02460B46CDE9000100201549E5
:102DB00000F010FF074688460AA9485D01F08AFE28
:102DC0003A464346CDE9020101F0D4FECDE90601C1
:102DD000504601F07FFECDE90401DDE9062301F054
:102DE00021FCCDE9080101F031FE1FFA80FA681CD0
:102DF000C5B2B542D2DB0AF0FF000EB0BDE8F087E5
:102E0000830100200000244010B56FF00400FDF79E
:102E10002AFC2E4800682E49B0FBF1F02D490870BD
:102E20000846007800EB4001C1EBC0104FF6FF717F
:102E300001EAC0002849088010BD0146254A1278E1
:102E40004A434FF0E0235A6100229A611A46126900
:102E500042F001021A6100BF4FF0E022106900F059
:102E600001021AB100F48032002AF5D04FF0E022BE
:102E7000126922F001024FF0E0231A6100229A61E8
:102E800070470146144A12884A434FF0E0235A61C2
:102E900000229A611A46126942F001021A6100BFCB
:102EA0004FF0E022106900F001021AB100F4803204
:102EB000002AF5D04FF0E022126922F001024FF013
:102EC000E0231A6100229A61704700000000002090
:102ED00000127A00340000203600002010B54FF4B4
:102EE000A060FDF771FB10BD00BF704700BFC24A74
:102EF000128802F04002002AF9D0C2B2BE4B1B1D5C
:102F00001A80704710B5044600BF8021BB48FFF708
:102F1000FFFA0028F9D02146B848FFF78BFA10BD18
:102F200010B5044600BF8021B348FFF7F1FA00282E
:102F3000F9D02146B048FFF77DFA10BD10B586B034
:102F40000446012144F20400FEF7C6F9AB48FFF73E
:102F500035F94FF40070ADF8140003208DF8160019
:102F600018208DF8170005A9A548FDF7D9FE4FF4E4
:102F70008060ADF8140048208DF8170005A9A0481E
:102F8000FDF7CEFE25208DF8000003208DF801000E
:102F90008DF8020001208DF803006846FDF719FB4B
:102FA00001940020ADF80800ADF80A00ADF80C005F
:102FB000ADF810000C20ADF80E0001A98F48FFF706
:102FC00040F9012240F225518C48FFF7D2F9012146
:102FD0008A48FFF7C2F906B010BD10B586B00446A6
:102FE00001210420FEF778F901214804FEF781F958
:102FF0008148FFF7E3F80420ADF8140003208DF8B2
:10300000160018208DF8170005A97D48FDF788FEE9
:103010000820ADF8140004208DF8170005A97848A1
:10302000FDF77EFE26208DF8000000208DF80100BF
:1030300001208DF802008DF803006846FDF7C9FAFB
:1030400001940020ADF80800ADF80A00ADF80C00BE
:10305000ADF810000C20ADF80E0001A96648FFF78E
:10306000F0F8012240F225516348FFF782F901216F
:103070006148FFF772F906B010BD10B586B004467E
:1030800001210820FEF728F901218804FEF731F913
:103090005C48FFF793F84FF48060ADF8140003200C
:1030A0008DF8160018208DF8170005A95648FDF771
:1030B00037FE4FF40060ADF8140004208DF81700BF
:1030C00005A95148FDF72CFE27208DF800000020AF
:1030D0008DF8010001208DF802008DF8030068468C
:1030E000FDF777FA01940020ADF80800ADF80A006A
:1030F000ADF80C00ADF810000C20ADF80E0001A9E1
:103100004048FFF79EF8012240F225513D48FFF765
:1031100030F901213B48FFF720F906B010BD0BE064
:1031200000BF3649098801F040010029F9D0017833
:10313000324A121D1180401C01780029F0D17047DD
:103140000BE000BF2F49098801F040010029F9D0A8
:1031500001782C4A121D1180401C01780029F0D101
:10316000704710B540F225512448FFF7E7F918B130
:103170002248FFF763F9C4B210BD10B540F22551E3
:103180001D48FFF7DBF9B0B11B48FFF757F9C4B290
:103190001948FFF753F9C1B21C4802780078401C67
:1031A0001A4B18701A48815418460078632802DDBB
:1031B00000201946087010BD10B540F22551114885
:1031C000FFF7BCF9B0B10F48FFF738F9C4B20D48AA
:1031D000FFF734F9C1B20F4802780078401C0D4B5C
:1031E00018700D48815418460078632802DD0020CD
:1031F0000649087010BD000000440040003801403E
:103200000008014000480040000C01404000002040
:10321000BB00002042000020830100207047000016
:103220000FB4044910B503AA029800F071FB10BC5A
:103230005DF814FB3C0000200FB41CB5074B06AA38
:103240007B4469460090059800F033FB00206946F6
:1032500000F042FB1CBC5DF814FB0000950600006A
:1032600070B5044685690068C10601D5302600E0C6
:103270002026C00707D070BDD4E901213046904711
:10328000206A401C20626D1EF6D570BD70B50446E4
:1032900085690078C00707D170BDD4E901212020DD
:1032A0009047206A401C20626D1EF6D570BD0968EB
:1032B0004A0501D540B27047C905FCD500B2704738
:1032C00009684A0501D5C0B27047C905FCD580B26E
:1032D000704770B50C460546012A05D0287880064F
:1032E00000D5EA69002302E0012305E05B1C93425C
:1032F00002D2E05C0028F9D1A869E618C01AA861DA
:10330000286A184428622846FFF7AAFF04E0D5E996
:10331000012114F8010B9047B442F8D32846FFF777
:10332000B5FF70BD2DE9F0410646002410687529EF
:10333000314616A510D0FFF7BAFF002802DA404246
:1033400013A507E031688A0701D512A502E04907F5
:1033500004D511A5012401E0FFF7B2FF00210A22E4
:1033600006F1240709E0B0FBF2FCB0FBF2F302FB2C
:103370001C00303078541846491C0028F3D12346ED
:103380002A463046BDE8F04100F035BA00000000A2
:103390002D0000002B000000200000002DE9FF5F41
:1033A00015468A460446DFF8AC80F8440027D8E981
:1033B00000103E46CDE9001010E03AF816106A46BB
:1033C00002A800F0CDFA411C07D02178890603D568
:1033D000E269391891420DD80744761C207880069E
:1033E00002D5E069B84205DDAE42E6DB3AF81600E8
:1033F0000028E2D1A069C01BA0612046FFF730FF82
:10340000D8E90010CDE90010002017E03AF81810B4
:103410006A4602A800F0A4FAB0F1FF3F81460BD043
:1034200000250DF1080B05E0D4E901211BF805008A
:1034300090476D1C4D45F7D308F10100B04280461E
:10344000E4DB206A384420622046FFF71FFFBDE816
:10345000FF9F0000D61E000070B50446214610688C
:10346000FFF72EFF002104F1240505E000F007021C
:103470003032C0086A54491C0028F7D12068002364
:1034800007A2050707D5800600D421B1E069012312
:1034900004A2401EE0612046BDE8704000F0ABB9D8
:1034A000000000003000000070B504460D462146C3
:1034B0001068FFF705FF2188090502D50F4A7A44F5
:1034C00002E00E4A7A440E32002104F1240305E0A2
:1034D00000F00F060009965D5E54491C0028F7D1E4
:1034E00020780023000704D5702D02D009B10223F3
:1034F00011322046BDE8704000F07DB9CA1D0000C1
:103500002DE9F05F894604464FF0000ADFF874B1F8
:10351000FB44C0F820A02046E1688847002874D00A
:10352000252806D0D4E901219047206A401C20625A
:10353000F1E700265F462046E168884720280546D7
:1035400007DB312D05D2781910F8200C08B106439D
:10355000F1E7B00701D526F00406C4F81CA0002747
:10356000C4F818A02A2D09D0284600F02BFB38B348
:1035700004EB8708303DC8F8185019E059F8041BCF
:10358000204604EB87029161E1688847012F0546D8
:1035900018D1E069002820DA26F020061DE0D8F8CE
:1035A000180000EB800005EB40003038C8F8180028
:1035B0002046E1688847054600F004FB0028EED16C
:1035C000012F0AD02E2D08D12046E16888477F1CA4
:1035D0000546022F46F02006C4DBA069002803DA66
:1035E000404246F00106A061F00701D026F0100627
:1035F0006C2D0BD0682D09D04C2D39D06A2D35D0CB
:10360000742D35D07A2D33D016E038E0E1682F469E
:1036100020468847B842054609D16C2F26D04FF482
:103620008060E168064320468847054604E06C2F29
:103630001AD04FF4807006430DB3A5F1410019284C
:1036400002D8203546F400664A46294620462660C0
:103650004E46FCF785FD80B101280BD0F61D26F003
:10366000070000F1080956E74020E4E78020D8E78A
:103670000020D6E706F104094DE7284652E7206A04
:10368000BDE8F09FA01D000030B505460B462A4658
:1036900013F8014B12F8010B08B1A042F8D01CB18D
:1036A000002802D06D1CF1E7284630BD10B5431C40
:1036B00002E010F8011B71B18107FAD14FF001321D
:1036C00002C88C1A8C4314EAC211F9D0C01A0A0637
:1036D00003D0C01E10BDC01A10BD0A0401D0801E48
:1036E00010BD0902FCD0401E10BD032A40F23080FC
:1036F00010F0030C00F0158011F8013BBCF1020F33
:10370000624498BF11F801CB00F8013B38BF11F8B3
:10371000013BA2F1040298BF00F801CB38BF00F8CA
:10372000013B11F0030300F02580083AC0F0088047
:1037300051F8043B083A51F804CBA0E80810F5E72B
:10374000121D5CBF51F8043B40F8043BAFF300800E
:10375000D20724BF11F8013B11F801CB48BF11F883
:10376000012B24BF00F8013B00F801CB48BF00F853
:10377000012B704710B5203AC0F00B80B1E818500B
:10378000203AA0E81850B1E81850A0E81850BFF44B
:10379000F5AF5FEA027C24BFB1E81850A0E81850EA
:1037A00044BF18C918C0BDE810405FEA827C24BF3E
:1037B00051F8043B40F8043B08BF7047D20728BFCC
:1037C00031F8023B48BF11F8012B28BF20F8023B1B
:1037D00048BF00F8012B704770477047704770472B
:1037E00010B500F0E5F8006810BD10B5044600F013
:1037F000DFF8046010BD2DE9F0470D46994692466A
:10380000044600F124080168880604D5E06921F027
:103810001001216000E00120A84201DD471B00E00B
:103820000027A1697A1902EB0900081AA061207823
:10383000C00602D42046FFF713FD002608E0D4E9B5
:1038400001211AF806009047206A401C761C20626D
:103850004E45F4DB2078C0060AD52046FFF700FD70
:1038600006E0D4E9012130209047206A401C206204
:10387000381EA7F10107F4DC07E0D4E9012118F8AC
:1038800005009047206A401C2062281EA5F1010512
:10389000F3DC2046FFF7FAFC2078000602D5022070
:1038A000BDE8F0870120FBE701694A1C0261087846
:1038B000704700B58FB0CDE9013100210591054970
:1038C0007944CDE9031011466846FFF719FE0FB0A1
:1038D00000BD0000E5FFFFFF0A6802F8010B0A6067
:1038E000704710B5436913B1AFF3008001E0FFF7F3
:1038F000F0FC012010BD127800F124010A700022B2
:103900004A700122EDE711684FF0FF32E9E700004D
:10391000074B70B50D467B44FFF7CBFF04462846A6
:1039200000F04AF810B14FF0FF3070BD204670BD76
:10393000D3F5FFFF10B5436913B1AFF3008001E089
:10394000FFF72CFD012010BD128800F124018284B4
:103950000022C2840122EDE711684FF0FF32E9E74F
:1039600070B516460C46054600F01AF8036893F841
:103970000101012806D0FF2C0FD8185D68B1012085
:103980002C7070BDD3F807013246214603F20713AD
:1039900003442846BDE8704018474FF0FF3070BD23
:1039A00010B500F037F8001D10BD00BF4D0C000031
:1039B00000487047E8010020007B00F0800070475D
:1039C00000487047E80100207546FFF7F9FFAE4652
:1039D00005006946534620F00700854618B020B51B
:1039E000FEF7FEFDBDE820404FF000064FF0000757
:1039F0004FF000084FF0000B21F00701AC46ACE897
:103A0000C009ACE8C009ACE8C009ACE8C0098D4603
:103A100070470000004870470802002010B50446B7
:103A2000AFF300802046BDE81040FCF7CEBB00009D
:103A30004FF0013C50F8042B51F8043B9A4221D13D
:103A4000A2EB0C03934313EACC1317D150F8042BC9
:103A500051F8043B9A4215D1A2EB0C03934313EAAD
:103A6000CC130BD150F8042B51F8043B9A4209D1E6
:103A7000A2EB0C03934313EACC13DBD04FF000000E
:103A8000704700BFD01A01BAB1FA81F101F01801F4
:103A900022FA01F0CB40C1F12001DBB2C0B2C01A62
:103AA0002CFA01F3D11A914311EAC311E6D1704700
:103AB000490050EAC12018BF04204A0D18BF40F049
:103AC000010040F2FF72B2EB515F08BF40F002000C
:103AD000012808BF052070472DE9F0414F1E00EB7B
:103AE000C7010446D1E9000115461E4637F006021B
:103AF0000DD02A46334601F03DF87F1E04EBC70384
:103B0000D3E9002300F08EFD37F00602F1D1022F39
:103B100025D0042F13D0062F18BFBDE8F0812A4608
:103B2000334601F027F8D4E90A2300F07BFD2A464A
:103B3000334601F01FF8D4E9082300F073FD2A464C
:103B4000334601F017F8D4E9062300F06BFD2A464E
:103B5000334601F00FF8D4E9042300F063FD2A4650
:103B6000334601F007F8D4E9022300F05BFD2A4652
:103B7000334600F0FFFFD4E90023BDE8F04100F038
:103B800051BD0000002213461046014900F006BE58
:103B90000000F03F00F046BD0022134610461146DB
:103BA00000F0FCBD40F2013200204FF0E04101F096
:103BB00023BB0000024A0020110701F01DBB0000DA
:103BC00001FDFFFF30380A2801D201207047002094
:103BD000704700002DE9F04D1D460C4698B0174681
:103BE00021F0004123F00043002814BF4FF0010CE6
:103BF0004FF0000C0CEB440CFE4A0CEB02064FEAB3
:103C0000620C66452BD33E0018BF012606EB450625
:103C10001644F94A964222D3F84A53EA070C02D0D6
:103C2000944205D148B918B000201146BDE8F08D86
:103C3000002808BF4FF0000C01D04FF0010C0CEB36
:103C4000440212F5001F0AD8002F14BF4FF0010CD8
:103C50004FF0000C0CEB450212F5001F07D918B00D
:103C60003A462B462146BDE8F04DFFF793BF0022B0
:103C7000DFF88CA3002CB8BF534526DADFF884C3E5
:103C80006345A8BF022220DADFF870C39C451CDC24
:103C9000DFF874C30CEB235CBCF1140F08DDCCF12E
:103CA000340627FA06FC0CFA06F6BE420DD108E0EF
:103CB0005FB9CCF1140623FA06FC0CFA06F69E4214
:103CC00003D10CF00102C2F1020251EA000C19D139
:103CD000002D17DA002C18BF022A01D0012A07D0C4
:103CE0000220FFF782FD18B0BDE8F04DFFF74ABF94
:103CF0000220FFF77AFDFFF745FF18B081F0004181
:103D0000BDE8F08DB7F1000C6CD1534525D104F11D
:103D1000804212F5801201BF00280020B74918B078
:103D200008BFBDE8F08DB548884207DC002DA1BF73
:103D30006046294618B0BDE8F08D07E0281E05DA78
:103D400080F0004118B06046BDE8F08DAF4979447D
:103D5000D1E9000118B0BDE8F08DDFF8A0C26345DD
:103D600025D1002D1FDA19B1514512D1D8B909E07A
:103D7000002840F0EC82A24A214618B062F31E01EE
:103D8000BDE8F08D0020214618B060F31E01BDE8AB
:103D9000F08D08DA18B02346BDE8F04D0246002049
:103DA000614600F0FBBC18B02146BDE8F08D5145DE
:103DB00018DAB5F1804F0DD0A5F1005CBCF1FF5CC5
:103DC00010D1B4F1000C0DDB18B06146BDE8F04D28
:103DD00000F0ECBB234618B00246BDE8F04D194692
:103DE00000F0C8BE060024F0004C3BD1D9B15145CB
:103DF00033D1002C06DD002DA1BF0020514618B0A4
:103E0000BDE8F08D002C01DD002D1BDB002C13DA4A
:103E1000002D11DB012A4FF0000014BF78497C49C6
:103E200018B0BDE8F08D022A18BF002C0AD0012A74
:103E300008D1002C06DA0AE0002CB8BF002D11DAF8
:103E4000012A04D0002018B00146BDE8F08D18B05A
:103E500000204FF00041BDE8F08DA1F14050B0F1DD
:103E60007F601AD0012000EBE47050EA020421D0F8
:103E7000624C521E4FF0000B104304BF4FF0000B7A
:103E8000644C654883427CDD644A654893421FDD8B
:103E9000884217DB002D25DB37E0002C00DA4AB121
:103EA000022A0CBF01204FF0FF3018B0BDE8F04DE2
:103EB00000F0F9BD0120FFF798FC18B0BDE8F04D07
:103EC000FFF76ABE4D4A8A4202DC002D0ADC1CE084
:103ED000814202DA002D18DA04E0484B994220DDD5
:103EE000002D12DD0220FFF780FCFFF75BFE054688
:103EF0000E46002253465846214600F03BFE18B0BD
:103F000066F31E012846BDE8F08D0220FFF76DFC28
:103F1000FFF750FE0A46214618B062F31E01BDE8C5
:103F2000F08D00223046614601F04AF880460E4688
:103F30006FF0010201F060F94FF05532394B00F09B
:103F40004DFF4246334600F015FE0022364B00F08E
:103F500045FF82464246334604911046194600F01A
:103F600009FE5246049B00F005FE8A4600904FF081
:103F7000C0422E4B4046314600F0FCFD2C4A2B4BF4
:103F800000E027E0CDE906015146009800F0F2FD7F
:103F900082460191274A284B4046314600F0EAFD0F
:103FA0005246019B01F00CF882460B4602460591F1
:103FB000DDE9060100F036FBDDE906230026884630
:103FC000304600F0FDFF5246059B00F007FF024619
:103FD00000F07EB90020B1F5801F07DA35223046A7
:103FE000614601F009F906466FF0340000EB2150FC
:103FF00024E00000FFFF1F00FFFF0F000000F03F64
:104000000000F07F0000404301FCFFFFFE150000B0
:104010000000F0FF0000F0BF0000E0410000F043AE
:10402000FFFFEF3F5555D53F0000E03F4715F73FF5
:10403000FE822B6544DF5DF80BAE543EA0F2FF30EC
:104040000190C1F3130040F07F6141F040510291B3
:10405000FE498842D8BF002004DDFD498142C8BF27
:10406000012001DD0D9008E000200D900198401C1A
:1040700001900298A0F5801002900299F5487844CA
:104080000B910D9900EBC100D0E900230F9330464E
:104090000A920B9900F094FFCDE90601DDE90A21AF
:1040A00030460F9B00F0BEFA02460B460020EA495C
:1040B00000F074FB059102460B460090DDE9060115
:1040C00000F058FD1490E5488A464FF00008784407
:1040D0000299006812904FF0005040EA61010D987B
:1040E0000F9B01EB804000F5002109910A9A12987C
:1040F00000F066FF32460B9B00F070FE42465346CE
:1041000000F038FD0646029140465146099B129A3E
:1041100000F030FDDDE9062300F060FE3246029B30
:1041200000F04EFF059B009A00F024FD0091149AC8
:10413000049053461046194600F01CFD0646024600
:10414000C7480B46029106217844FFF7C5FCCDE92C
:104150000510029B32461046194600F00BFDDDE9C2
:10416000053200F007FD05910646534640461946C4
:10417000149A00F057FA009B049A00F0FBFC3246B8
:10418000059B00F04FFACDE9051042465346104614
:10419000194600F0EFFC0022B24B02910A9000F0A9
:1041A00041FADDE9053200F03DFA0E464246AD4BDC
:1041B000404600F005FF029B0A9A00F001FFDDE98E
:1041C000053200F00BFE424602910A90334610463B
:1041D000514600F0CFFCCDE906015346149A0299EE
:1041E0000A9800F0C7FC8A4602903346424600997E
:1041F000049800F0BFFC5346029A00F013FA82467E
:104200000B4602460591DDE9060100F00BFADDE9F7
:10421000062300208846064600F0D2FE5246059B43
:1042200000F0DCFD824609914FF060428E4B304633
:10423000414600F09FFC049006918C4A8A4B504600
:10424000099900F097FC82460291894A894B3046D1
:10425000414600F08FFC5246029B00F0E3F9864B8A
:104260007B440D9A03EBC203D3E9002300F0DAF993
:104270000E900791019800F016FC0591DDE90613F8
:1042800082460E9A049800F0CDF97C4A7A440D9B40
:1042900002EBC303D3E900230093029200F0C2F9BA
:1042A0005246059B00F0BEF900268846524630462D
:1042B000059B00F085FE009B029A00F081FE069BA4
:1042C000049A00F07DFE079B0E9A00F087FD0246DF
:1042D00000200B4602903846294600F04BFC8246EF
:1042E00001912B4638461946029A00F069FE324683
:1042F000434600F03FFC5246019B00F093F907460D
:104300008A46324643462946029800F033FC054669
:104310000E463A46534600F085F9594A884691427E
:1043200021DBA8EB020353EA000210D12A463346F0
:1043300000F046FECDE90401524A534B384651463F
:1043400000F070F9DDE9042300F012FD21D2022013
:10435000FFF74BFAFFF726FC0A46214618B062F336
:104360001E01BDE8F08D494B28F000429A4210D35F
:10437000474A08EB020353EA00027FF4C6AD2A461F
:10438000334600F01DFE3A46534600F0F1FC7FF63E
:10439000BCAD0022019228F000403E493E4A01EBAC
:1043A0002051824223DA481C4FF4801121FA00F098
:1043B00040443A4AC0F30A517A44394BA1F2FF31E2
:1043C000CB4020EA0303C0F3130040F48010C1F196
:1043D0001401C84012680190B8F1000FBCBF404200
:1043E00001902846314600F0EBFD05460E462A4670
:1043F00033463846514600F015F94FF00008424662
:10440000284B4046059100F0B5FBCDE90601264A50
:10441000264B4046059900F0ADFB009102902A46DC
:1044200033464046059900F0CBFD3A46534600F02E
:10443000D5FC1F4A1F4B00F09DFB009B029A00F029
:10444000F1F80746884602460B4635E08E98030091
:104450007AB60B00461200000000F03F7E1200000A
:10446000AC1100000000084009C7EE3FFD033ADC34
:10447000F5015B14E02F3EBE8410000048100000E0
:1044800000009040FE822B654715973C00CC904081
:1044900000346F3F01FCFFFF0000E03F940F00007D
:1044A000FFFF0F00432EE63F396CA80C615C20BE75
:1044B000EF39FAFE422EE63FDDE9060100F0B2F8E0
:1044C000DDE9062305460E4600F07AFD3A464346EE
:1044D00000F084FC0F462A463346009010461946E9
:1044E00000F048FB824602462E4888460B460521CE
:1044F0007844FFF7F1FA5246434600F03BFB2A4668
:10450000334600F06BFC80468A463B4628463146DF
:10451000009A00F02FFB3B46009A00F083F80691CA
:10452000009000224FF080434046514600F048FD85
:104530000F460C90424653462846314600F01AFB7F
:104540003B460C9A00F02AF9069B009A00F038FDD1
:104550002A46334600F034FD0022134B00F03EFCA7
:10456000054601980E4601EB00510815002810DCA5
:1045700028463146019A00F03FFEFFF799FA0428D9
:1045800008BFFFF717FB28463146019A00F034FEBA
:1045900005460B4618B02A4658462146BDE8F04D60
:1045A00000F0E8BA340E00000000F03F2DE9F041C1
:1045B00006460F4600F01EFC041E0D4618BF0120E3
:1045C000284320F00040C0F17F6000F1E040C00FC0
:1045D0000ED0301C18BF0120384320F00040C0F13D
:1045E0007F6000F1E040C00F04BF0120FFF7FDF83D
:1045F00020462946BDE8F08110B500290AD0087888
:10460000002807D005487844FFF712FA002801D0A7
:10461000002010BD0248784410BD0000DE0D0000EF
:10462000D60D000010B591EA030F48BF83F0004398
:1046300000F1CE84841A71EB030C05D2121943EBFE
:104640000C03001B61EB0C01DFF824E14FEA11546D
:10465000A4EB135C1EEA430F18BF9EEA445F73D0BD
:1046600023EA0E03DCF1200E21EA045143F4801307
:1046700032D322FA0CFE10EB0E0023FA0CFE41EBB3
:104680000E01CCF1200E03FA0EFE10EB0E0051F1DC
:104690000001B1F5801FCCF1200E32D201EB0451A4
:1046A00012FA0EF2BDE8104058BF7047401C38BFE8
:1046B0005FEA420218BF7047002814BF20F00100D3
:1046C00041F100014FEA410313F5001F38BF704765
:1046D000A1F1C04100F046BB012A43EB0302ACF15B
:1046E000200CDCF11F0E32BF4FF0000E23FA0CF34A
:1046F00010EB030041EB0451B4EB115FD0D0A1EB00
:10470000045101F5801149085FEA300001EB0451C2
:104710000ED350F1000038BF12FA0EFE08D1BDE8EA
:104720001040C9E7401C38BF5FEA4202CAD1C3E764
:10473000BDE810404FEA410313F5001F38BF704732
:10474000A1F1C04100F00EBB9EEA445F08D011EA1F
:104750005E0FBDE8104004BF01F00041002070472B
:10476000BDE8104070B500F0AFFA00BF64FBBE3E7C
:104770000000E0FF02494FF0000000F00BBD00BF59
:104780000000F87F491058BFC1F140415B1058BF8D
:10479000C3F140438B42EFF3008070472DE9C041E5
:1047A00030B4DFF8A0C23CEA111418BF3CEA13147D
:1047B00000F0EC8081EA03051CEA111444EAD57488
:1047C00018BF1CEA131500F0C780A4EB05044FF0D6
:1047D000004545EAC12145EAC32341EA505143EA75
:1047E000525304F17F74994204F500344FEAC0201B
:1047F0004FEAC22208BF904200F09C804FEA136546
:104800000FF24016765D4FEA134506FB05F7C7F138
:10481000807706FB07F74FEAD737A7FB0368764296
:10482000C8F58038A7FB06CE38BFA8F1010807FB02
:1048300008E64FF0000EA6FB028CE6FB03CEDCF18F
:10484000000CCEF1004E38BFAEF1010EA6FB0C58A5
:104850004FF000074FF00005E6FB0E87A1FB08C6EE
:10486000A0FB07CE16EB0E0645F10005E1FB076540
:1048700015F1E04E7EBFA4F580345FEA46066D4137
:1048800016F1800745F100054FEA17274FEA066643
:1048900047EA0567A6F1DE46B6F1805F4FEA1525C7
:1048A0001FD9384624F0010C05EBC471BCF1FE6F32
:1048B00001EB0C1102D8F0BCBDE8008124425CBFC2
:1048C00001F5801E9EEAC47F02D4F0BCBDE80081E1
:1048D000244238D4F0BCA1F1C041BDE8004100F051
:1048E00041BA4FEAD22242EA43524FEAD323A7FB0E
:1048F00002864FEAD02040EA415007FB03661EEAD9
:104900000E0F4FEAD12105FB026658BFA6EB0056F9
:10491000B6EB00564FEA520E4EEAC37E18EB0E0E6F
:1049200056EB530EBDD518EB02085E417F1C55F1C6
:104930000005B6E74FF480154FF000074FF0000672
:104940004FF00008ADE7F0BC4FF0000001F1C041AE
:1049500001F00041BDE8008111EA0C1F0CEA1315BB
:1049600000D00CE013EA0C1F00F025804FF000008F
:10497000F0BC81EA030101F00041BDE80081F0BC18
:10498000BDE8004181EA030100F0ECB9F0BCBDE8EC
:10499000004170B500F098F9097EFC3E00F007B8C0
:1049A00081EA03014FF0000001F00041704781EA05
:1049B000030100F0D7B9F0BCBDE800414FF00000A2
:1049C00021497047FFFDFBF9F7F5F4F2F0EEEDEB4E
:1049D000E9E8E6E4E3E1E0DEDDDBDAD8D7D5D4D3FD
:1049E000D1D0CFCDCCCBCAC8C7C6C5C4C2C1C0BF49
:1049F000BEBDBCBBBAB9B8B7B6B5B4B3B2B1B0AF4F
:104A0000AEADACABAAA9A8A8A7A6A5A4A3A3A2A132
:104A1000A09F9F9E9D9C9C9B9A99999897979695ED
:104A200095949393929191908F8F8E8E8D8C8C8B89
:104A30008B8A898988888787868585848483838211
:104A4000828181800000FF070000F87F4FEA115348
:104A5000A3F58063D3F11E03A8BFD3F1200C08DBBC
:104A60004FF0004242EAC12252EA505232FA03F0B9
:104A7000704709420BD4102BC4BF0020704703F5C8
:104A8000787CBCF1FF3F05D04FF0FF3070474FF00E
:104A90000000704770B500F017F900BF49922480FC
:104AA00000207047F0E710F0004248BF4042B0FAE3
:104AB00080F310FA03F10AD0C3F11D0303F58063FC
:104AC0004FEA415002EB035202EBD12170474FF005
:104AD00000007047B0FA80F310FA03F10AD0C3F176
:104AE0001D0303F580634FEA41504FEA035202EB86
:104AF000D12170474FF000007047000051EA030CCD
:104B000017D41CF5801F58BFBCF5801F00F106802C
:104B1000994218BF704708BF9042704707D711F5F8
:104B2000801F58BF13F5801F19D4994270478942DE
:104B300070471CF5801F08D5BCF5801FF7D58B4248
:104B400018BF704708BF824270474FF4001C1CEB2F
:104B5000410F38BF1CEB430F01D28B42704770B539
:104B600000F0B2F8922449004FF000514FF080530A
:104B7000FFF708BEDFF848C170B51CEA111E1EBF62
:104B80001CEA13159EEA0C0F95EA0C0F00F06F80DB
:104B900081EA030423EA4C134EEAD47E21EA4C1145
:104BA00041F4801143F48013AE44A1FB024CA0FBFE
:104BB0000365AEF17F7E361955EB0C05A1FB034C66
:104BC0004CF10003A0FB021C16EB0C06654153F1EF
:104BD0000003094218BF46F0010613F4007F0BD111
:104BE0004FEA03314FEA0530340341EA155140EAF8
:104BF00016506FF003020AE04FEAC3214FEAC520C6
:104C0000F40241EA555140EA56506FF0020202EBBD
:104C10002E4201EB025585EACE710AD05FEA440CC0
:104C200018BF24F0004450F1000041F1000120EAD7
:104C3000D47040F2FE7C624500D270BDA84214BF21
:104C40004FF080444FF04044002E08BF0024BEF1D6
:104C5000806FA8BFA1F1C041BDE8704080F28280A2
:104C60004FF0000001F1C04101F0004170479EEAA1
:104C70000C0F0CEA131518BF95EA0C0F06D04FF075
:104C8000000081EA030E0EF0004170BD00F01CF838
:104C90008900013E00F007B800F009B84FEA430C64
:104CA0005FEA5C5C08D081EA030100F05BB84FEA80
:104CB000410C5FEA5C5CF6D14FF00000014970479F
:104CC0000000FF070000F87F0EF1020E2EF0030E29
:104CD0005EF8046B364205D4012A43EB030515F553
:104CE000001F12D8012841EB010C1CF5001F0CD845
:104CF0000ED14FEAD17C15F5001F0CEB4C0C0CF1DA
:104D0000020C08BF4CEBD37C04E04FF0080C01E030
:104D10004FEAD37C0CEB4C0526FA05F606F00706A5
:104D2000B6F1040C06D20EEB860CBDE870404CF0D8
:104D3000010C6047DFE80CF0090B02024FF0004164
:104D40004FF00000A1F5002170BD19461046012862
:104D500051EB010418BFD4F5001484BF002001F00A
:104D6000004170BD0808A0F500114FEA31017047FD
:104D700053EA010C17D41CF5801F58BFBCF5801FE7
:104D800000F106808B4218BF704708BF824270470F
:104D900007D713F5801F58BF11F5801F19D48B4218
:104DA00070479B4270471CF5801F08D5BCF5801FDB
:104DB000F7D5994218BF704708BF904270474FF42B
:104DC000001C1CEB430F38BF1CEB410F01D2994272
:104DD00070470FB40CBC03BCFFF7C1BE91EA030FD0
:104DE00010B581F000413FF525AC83F0004300F0A1
:104DF000EFB800002DE9F04101F5801CBCF5001F63
:104E0000C0F2C3804FEA115C21EA0C510CF1FD0C99
:104E100041F480115FEA5C0C0CF5C07C01D34000CA
:104E200049413DA4890241EA905187028E0E0A0C45
:104E3000A45D04FB04F602FB06F6C6F14046A4FBA3
:104E40000662F60D46EA422606FB06F4A4FB0123A1
:104E50005242C3F1404338BF5B1EA6FB024200240E
:104E6000E6FB0324D20B42EA4446A6FB0623A1FB41
:104E700002E2A3FB07E4A4184FF0000252F1000283
:104E8000E3FB01426442C2F1404E38BFAEF1010E75
:104E9000A6FB04234FF00002E6FB0E32A2FB034602
:104EA0004FF00004B61954F10004E2FB0264A1FBC8
:104EB00006E6A4FB07E816EB08064FF0000858F1D9
:104EC0000008E4FB01687642C8F1405838BFA8F1F9
:104ED0000108A2FB06E4A3FB08E52D194FF000042E
:104EE00054F10004E2FB0854A1FB05E6A7FB04E82B
:104EF00018EB06084FF0000656F10006E1FB0486A9
:104F000018F1200556F10006A809A8F11B08B109FF
:104F100008F03F08B8F10A0F40EA86601CD901EB9F
:104F20000C51BDE8F08100BFFCF5EEE8E2DDD8D31E
:104F3000CFCBC7C3C0BDB9B6B4B1AEACA9A7A5A30A
:104F4000A19F9D9B9A9896959392908F8D8C8B891B
:104F50008887868584838281A0FB006800FB01F23C
:104F600008EB4208B8EB872807D5341858EB010442
:104F7000D5D5401C51F10001D1E7341A78EB01047A
:104F8000CDD4401E71F10001C9E75FEA4C0C5FEA25
:104F90009C5C0DD105D34FF0000001F00041BDE84D
:104FA000F081BDE8F04170B5FFF78EFE6DDBFFBE0E
:104FB000BDE8F0414FF00000004970470000F87F65
:104FC00010B591EA030F48BF83F000433FF532ABC1
:104FD000841A71EB030C07D212198CF0004C43EBCE
:104FE0000C03001B61EB0C01DFF8A4E14FEA115444
:104FF000A4EB135C1EEA430F18BF9EEA445F00F067
:10500000B08023EA6E03524221EA0451C3EB6E03DF
:1050100038BF5B1EDCF1200E25D322FA0CFE10EB0C
:105020000E0043FA0CFE41EB0E01CCF1200E03FA08
:105030000EFE10EB0E0051F10001CCF1200E29D430
:1050400012FA0EF201EB0451BDE8104058BF704750
:10505000401C1CBFB2F1004F704700280CBF491C18
:1050600020F00100704712EB020E43EB030218BF61
:105070004FF0010E4EEA4202ACF1200CDCF11E0EA4
:1050800054D943FA0CFE10EB0E0051F1FF31CCF174
:105090001E0ED5D50EF1010E12FA0EFE404141EB67
:1050A000010101EB445C5FEA5C5C10D910EBDE703F
:1050B00001EB045138BFBEF1004FBDE8104018BFEE
:1050C000704700280CBF491C20F00100704730D207
:1050D0004FEAD42C11F5001124F400641BD0B1FA6E
:1050E00081F20B3AA41AA41ED2F12003914030FAA7
:1050F00003F31943904001EBCC71002C01EB0451F8
:10510000BDE81040A8BF704701F1C0414FF000005A
:1051100001F000417047B0FA80F310FA03F100D1BA
:1051200010BDE41A173C4805C90AE4E701EB045135
:1051300010BD491001EB0451BDE810404FEA3000AA
:1051400002E04FF0000170474A0008BF0042F8D06B
:10515000B2F5001F28BF704701F000414FF000007A
:1051600070479EEA445F07D011EA5E0FBDE8104029
:1051700004BF002100207047BDE8104070B5FFF764
:10518000A3FD00BF40DFF63E83F0004110467047AC
:105190000000E0FF0CF00F03092B08BF082000F00F
:1051A00059800A2B0BD0082B18BF704708BF1CF082
:1051B000400F0AD04FF000004FF0000170471CF084
:1051C000400F18BF4FF0004070471CF0100F08D080
:1051D00020F0704300F07F4242EAD3014FEA43706F
:1051E000704700F0604021F07F4242EA000201F087
:1051F0007F4040EA727070474FF0FF0C4CF4E06C57
:105200001CEA11531CBF9CEA030C9445C2BFDA424E
:1052100001EB02517047002B0DD0BCF1000F0FD0F5
:10522000002A01F00041A4BF41F0E04141F07F615C
:105230004FF00000704701F000414FF00000704750
:1052400050EA01334FF09B0C18BF4CF0806C7FF498
:1052500091AA70471CF4801F11D01CF4E02F03D0DA
:105260006FEACC31490070474FF04050EFF30082B5
:1052700022F0704242EA000282F3008870474FF049
:1052800000007047000000000000000030313233A1
:10529000343536373839414243444546403058006A
:1052A000303132333435363738396162636465669C
:1052B00040307800040000080000000000000002F8
:1052C0000001000010000000000000000000F03F9E
:1052D000000000000000F83F000000000000000097
:1052E0000000004003B8E23F0000000000000000A2
:1052F00006D0CF43EBFD4C3E033333333333E33F30
:10530000FFAB6FDBB66DDB3F4D268F515555D53F5B
:1053100001411DA96074D13F65DBC9934A86CD3F29
:10532000EF4E454A287ECA3F3E5555555555C53F17
:1053300093BDBE166CC166BF2CDE25AF6A56113F09
:10534000F16BD2C541BDBBBED0A4BE726937663E0B
:1053500000000000000000007B226964223A223233
:1053600036222C2276657273696F6E223A22312EB4
:1053700030222C22706172616D73223A7B22576158
:10538000746572436F6E73756D7074696F6E223AD7
:105390007B2276616C7565223A25647D7D2C226DB9
:1053A0006574686F64223A227468696E672E657648
:1053B000656E742E70726F70657274792E706F7373
:1053C00074227D00F4540008000000204800000012
:1053D000280100083C550008480000200008000093
:1053E000440100081001000043000000F8FFFFFF27
:1053F00000404040404040404040414141414140E8
:10540000404040404040404040404040404040409C
:10541000400502020202020202020202020202022B
:105420000220202020202020202020020202020230
:105430000202909090909090101010101010101088
:105440001010101010101010101010100202020294
:1054500002028888888888880808080808080808D8
:1054600008080808080808080808080802020202D4
:1054700040000000000000000000000000000000EC
:10548000000000000000000000000000000000001C
:10549000000000000000000000000000000000000C
:1054A00000000000000000000000000000000000FC
:1054B00000000000000000000000000000000000EC
:1054C00000000000000000000000000000000000DC
:1054D00000000000000000000000000000000000CC
:1054E00000000000000000000000000000000000BC
:1054F0000000000000A24A040000000000000000BC
:105500000102030406070809000000000102030469
:10551000010203040607080902040608000000004F
:10552000000000000000000000000000000000007B
:0C5530000000000000000000000000006F
:04000005080000ED02
:00000001FF
